{
  "abi": [
    {
      "inputs": [],
      "name": "args",
      "outputs": [
        {
          "internalType": "bytes",
          "name": "",
          "type": "bytes"
        }
      ],
      "stateMutability": "view",
      "type": "function"
    },
    {
      "inputs": [],
      "name": "binary_check",
      "outputs": [],
      "stateMutability": "nonpayable",
      "type": "function"
    },
    {
      "inputs": [],
      "name": "code",
      "outputs": [
        {
          "internalType": "string",
          "name": "",
          "type": "string"
        }
      ],
      "stateMutability": "view",
      "type": "function"
    },
    {
      "inputs": [
        {
          "internalType": "string",
          "name": "file",
          "type": "string"
        }
      ],
      "name": "deploy",
      "outputs": [
        {
          "internalType": "address",
          "name": "",
          "type": "address"
        }
      ],
      "stateMutability": "nonpayable",
      "type": "function"
    },
    {
      "inputs": [],
      "name": "vm",
      "outputs": [
        {
          "internalType": "contract Vm",
          "name": "",
          "type": "address"
        }
      ],
      "stateMutability": "view",
      "type": "function"
    },
    {
      "inputs": [
        {
          "internalType": "bytes",
          "name": "aargs",
          "type": "bytes"
        }
      ],
      "name": "with_args",
      "outputs": [
        {
          "internalType": "contract HuffConfig",
          "name": "",
          "type": "address"
        }
      ],
      "stateMutability": "nonpayable",
      "type": "function"
    },
    {
      "inputs": [
        {
          "internalType": "string",
          "name": "acode",
          "type": "string"
        }
      ],
      "name": "with_code",
      "outputs": [
        {
          "internalType": "contract HuffConfig",
          "name": "",
          "type": "address"
        }
      ],
      "stateMutability": "nonpayable",
      "type": "function"
    }
  ],
  "bytecode": {
    "object": "0x608060405234801561001057600080fd5b50611941806100206000396000f3fe608060405234801561001057600080fd5b506004361061007d5760003560e01c80633a7684631161005b5780633a768463146100da5780634e9b75b6146100f5578063c5effd02146100fd578063c76023161461010757600080fd5b80632232d9081461008257806324c12bf6146100b257806328764d14146100c7575b600080fd5b61009561009036600461118a565b61011a565b6040516001600160a01b0390911681526020015b60405180910390f35b6100ba61012f565b6040516100a9919061122b565b6100956100d536600461118a565b6101bd565b610095737109709ecfa91a80626ff3989d68f67f5b1dd12d81565b6100ba6101cb565b6101056101d8565b005b61009561011536600461118a565b61037f565b60008061012783826112ce565b503092915050565b6000805461013c90611245565b80601f016020809104026020016040519081016040528092919081815260200182805461016890611245565b80156101b55780601f1061018a576101008083540402835291602001916101b5565b820191906000526020600020905b81548152906001019060200180831161019857829003601f168201915b505050505081565b6000600161012783826112ce565b6001805461013c90611245565b604080516001808252818301909252600091816020015b60608152602001906001900390816101ef5790505090506040518060600160405280602a8152602001611864602a9139816000815181106102325761023261138e565b6020908102919091010152604051638916046760e01b8152600090737109709ecfa91a80626ff3989d68f67f5b1dd12d906389160467906102779085906004016113a4565b6000604051808303816000875af1158015610296573d6000803e3d6000fd5b505050506040513d6000823e601f3d908101601f191682016040526102be9190810190611406565b90506000816000815181106102d5576102d561138e565b01602001516001600160f81b0319169050600160f81b8114806103795760405162461bcd60e51b815260206004820152604b60248201527f496e76616c69642068756666632062696e6172792e2052756e20606375726c2060448201527f2d4c206765742e687566662e7368207c20626173686020616e6420606875666660648201526a3ab830103a37903334bc1760a91b608482015260a4015b60405180910390fd5b50505050565b60006103896101d8565b60006103bc8360408051808201825260008082526020918201528151808301909252825182529182019181019190915290565b60408051808201825260018152602f60f81b6020808301918252835180850185526000808252908201819052845180860190955292518452830152919250906104058383610ccd565b610410906001611493565b67ffffffffffffffff811115610428576104286110dd565b60405190808252806020026020018201604052801561045b57816020015b60608152602001906001900390816104465790505b50905060005b81518110156104ac5761047c6104778585610d6e565b610d8d565b82828151811061048e5761048e61138e565b602002602001018190525080806104a4906114ab565b915050610461565b50604080516001808252818301909252600091816020015b60608152602001906001900390816104c45790505090506040518060600160405280602881526020016118e460289139816000815181106105075761050761138e565b6020908102919091010152604051638916046760e01b8152600090737109709ecfa91a80626ff3989d68f67f5b1dd12d9063891604679061054c9085906004016113a4565b6000604051808303816000875af115801561056b573d6000803e3d6000fd5b505050506040513d6000823e601f3d908101601f191682016040526105939190810190611406565b905060006105d06105a3836114c4565b6040516020016105b591815260200190565b60405160208183030381529060405280519060200120610df6565b90506000846000815181106105e7576105e761138e565b60200260200101519050600185511161062357818160405160200161060d9291906114e8565b60405160208183030381529060405290506106d9565b60015b60018651610634919061152e565b81101561068b578186828151811061064e5761064e61138e565b6020026020010151604051602001610667929190611545565b60405160208183030381529060405291508080610683906114ab565b915050610626565b508082866001885161069d919061152e565b815181106106ad576106ad61138e565b60200260200101516040516020016106c793929190611581565b60405160208183030381529060405290505b60408051600380825260808201909252600091816020015b60608152602001906001900390816106f157905050905060405180606001604052806029815260200161188e60299139816000815181106107345761073461138e565b60200260200101819052508160405160200161075091906115e5565b604051602081830303815290604052816001815181106107725761077261138e565b6020026020010181905250600060405160200161078f9190611693565b604051602081830303815290604052816002815181106107b1576107b161138e565b6020908102919091010152604051638916046760e01b8152737109709ecfa91a80626ff3989d68f67f5b1dd12d906389160467906107f39084906004016113a4565b6000604051808303816000875af1158015610812573d6000803e3d6000fd5b505050506040513d6000823e601f3d908101601f1916820160405261083a9190810190611406565b5060408051600380825260808201909252600091816020015b60608152602001906001900390816108535790505090506040518060600160405280602d81526020016118b7602d9139816000815181106108965761089661138e565b6020026020010181905250826040516020016108b291906115e5565b604051602081830303815290604052816001815181106108d4576108d461138e565b60200260200101819052508a6040516020016108f091906115e5565b604051602081830303815290604052816002815181106109125761091261138e565b6020908102919091010152604051638916046760e01b8152737109709ecfa91a80626ff3989d68f67f5b1dd12d906389160467906109549084906004016113a4565b6000604051808303816000875af1158015610973573d6000803e3d6000fd5b505050506040513d6000823e601f3d908101601f1916820160405261099b9190810190611406565b5060408051600380825260808201909252600091816020015b60608152602001906001900390816109b457905050905060405180604001604052806005815260200164687566666360d81b815250816000815181106109fc576109fc61138e565b602002602001018190525083604051602001610a1891906115e5565b60405160208183030381529060405281600181518110610a3a57610a3a61138e565b60200260200101819052506040518060400160405280600281526020016116b160f11b81525081600281518110610a7357610a7361138e565b6020908102919091010152604051638916046760e01b8152600090737109709ecfa91a80626ff3989d68f67f5b1dd12d90638916046790610ab89085906004016113a4565b6000604051808303816000875af1158015610ad7573d6000803e3d6000fd5b505050506040513d6000823e601f3d908101601f19168201604052610aff9190810190611406565b90506000816001604051602001610b179291906116b0565b60408051808303601f19018152600280845260608401909252925060009190816020015b6060815260200190600190039081610b3b57905050905060405180604001604052806002815260200161726d60f01b81525081600081518110610b8057610b8061138e565b602002602001018190525086604051602001610b9c91906115e5565b60405160208183030381529060405281600181518110610bbe57610bbe61138e565b6020908102919091010152604051638916046760e01b8152737109709ecfa91a80626ff3989d68f67f5b1dd12d90638916046790610c009084906004016113a4565b6000604051808303816000875af1158015610c1f573d6000803e3d6000fd5b505050506040513d6000823e601f3d908101601f19168201604052610c479190810190611406565b5060008251602084016000f090506001600160a01b038116610cba5760405162461bcd60e51b815260206004820152602660248201527f487566664465706c6f79657220636f756c64206e6f74206465706c6f7920636f6044820152651b9d1c9858dd60d21b6064820152608401610370565b9f9e505050505050505050505050505050565b6000808260000151610cf18560000151866020015186600001518760200151610e96565b610cfb9190611493565b90505b83516020850151610d0f9190611493565b8111610d675781610d1f816114ab565b9250508260000151610d56856020015183610d3a919061152e565b8651610d46919061152e565b8386600001518760200151610e96565b610d609190611493565b9050610cfe565b5092915050565b6040805180820190915260008082526020820152610d67838383610fb8565b60606000826000015167ffffffffffffffff811115610dae57610dae6110dd565b6040519080825280601f01601f191660200182016040528015610dd8576020820181803683370190505b5090506000602082019050610d678185602001518660000151611063565b60608060005b6020811015610d675781601a858360208110610e1a57610e1a61138e565b610e269291901a6116ce565b610e319060616116fe565b604051602001610e54919060f89190911b6001600160f81b031916815260010190565b60408051601f1981840301815290829052610e729291602001611723565b60405160208183030381529060405291508080610e8e906114ab565b915050610dfc565b60008381868511610fa15760208511610f505760008515610ee2576001610ebe87602061152e565b610ec9906008611752565b610ed4906002611857565b610ede919061152e565b1990505b84518116600087610ef38b8b611493565b610efd919061152e565b855190915083165b828114610f4257818610610f2a57610f1d8b8b611493565b9650505050505050610fb0565b85610f34816114ab565b965050838651169050610f05565b859650505050505050610fb0565b508383206000905b610f62868961152e565b8211610f9f57858320808203610f7e5783945050505050610fb0565b610f89600185611493565b9350508180610f97906114ab565b925050610f58565b505b610fab8787611493565b925050505b949350505050565b60408051808201909152600080825260208201526000610fea8560000151866020015186600001518760200151610e96565b602080870180519186019190915251909150611006908261152e565b8352845160208601516110199190611493565b8103611028576000855261105a565b835183516110369190611493565b8551869061104590839061152e565b90525083516110549082611493565b60208601525b50909392505050565b6020811061109b578151835261107a602084611493565b9250611087602083611493565b915061109460208261152e565b9050611063565b60001981156110ca5760016110b183602061152e565b6110bd90610100611857565b6110c7919061152e565b90505b9151835183169219169190911790915250565b634e487b7160e01b600052604160045260246000fd5b604051601f8201601f1916810167ffffffffffffffff8111828210171561111c5761111c6110dd565b604052919050565b600067ffffffffffffffff82111561113e5761113e6110dd565b50601f01601f191660200190565b600061115f61115a84611124565b6110f3565b905082815283838301111561117357600080fd5b828260208301376000602084830101529392505050565b60006020828403121561119c57600080fd5b813567ffffffffffffffff8111156111b357600080fd5b8201601f810184136111c457600080fd5b610fb08482356020840161114c565b60005b838110156111ee5781810151838201526020016111d6565b838111156103795750506000910152565b600081518084526112178160208601602086016111d3565b601f01601f19169290920160200192915050565b60208152600061123e60208301846111ff565b9392505050565b600181811c9082168061125957607f821691505b60208210810361127957634e487b7160e01b600052602260045260246000fd5b50919050565b601f8211156112c957600081815260208120601f850160051c810160208610156112a65750805b601f850160051c820191505b818110156112c5578281556001016112b2565b5050505b505050565b815167ffffffffffffffff8111156112e8576112e86110dd565b6112fc816112f68454611245565b8461127f565b602080601f83116001811461133157600084156113195750858301515b600019600386901b1c1916600185901b1785556112c5565b600085815260208120601f198616915b8281101561136057888601518255948401946001909101908401611341565b508582101561137e5787850151600019600388901b60f8161c191681555b5050505050600190811b01905550565b634e487b7160e01b600052603260045260246000fd5b6000602080830181845280855180835260408601915060408160051b870101925083870160005b828110156113f957603f198886030184526113e78583516111ff565b945092850192908501906001016113cb565b5092979650505050505050565b60006020828403121561141857600080fd5b815167ffffffffffffffff81111561142f57600080fd5b8201601f8101841361144057600080fd5b805161144e61115a82611124565b81815285602083850101111561146357600080fd5b6114748260208301602086016111d3565b95945050505050565b634e487b7160e01b600052601160045260246000fd5b600082198211156114a6576114a661147d565b500190565b6000600182016114bd576114bd61147d565b5060010190565b805160208083015191908110156112795760001960209190910360031b1b16919050565b675f5f54454d505f5f60c01b81526000835161150b8160088501602088016111d3565b8351908301906115228160088401602088016111d3565b01600801949350505050565b6000828210156115405761154061147d565b500390565b600083516115578184602088016111d3565b602f60f81b90830190815283516115758160018401602088016111d3565b01600101949350505050565b600084516115938184602089016111d3565b602f60f81b908301908152675f5f54454d505f5f60c01b600182015284516115c28160098401602089016111d3565b84519101906115d88160098401602088016111d3565b0160090195945050505050565b637372632f60e01b8152600082516116048160048501602087016111d3565b6417343ab33360d91b6004939091019283015250600901919050565b6000815461162d81611245565b60018281168015611645576001811461165a57611689565b60ff1984168752821515830287019450611689565b8560005260208060002060005b858110156116805781548a820152908401908201611667565b50505082870194505b5050505092915050565b600061169f8284611620565b600560f91b81526001019392505050565b600083516116c28184602088016111d3565b61147481840185611620565b600060ff8316806116ef57634e487b7160e01b600052601260045260246000fd5b8060ff84160691505092915050565b600060ff821660ff84168060ff0382111561171b5761171b61147d565b019392505050565b600083516117358184602088016111d3565b8351908301906117498183602088016111d3565b01949350505050565b600081600019048311821515161561176c5761176c61147d565b500290565b600181815b808511156117ac5781600019048211156117925761179261147d565b8085161561179f57918102915b93841c9390800290611776565b509250929050565b6000826117c357506001611851565b816117d057506000611851565b81600181146117e657600281146117f05761180c565b6001915050611851565b60ff8411156118015761180161147d565b50506001821b611851565b5060208310610133831016604e8410600b841016171561182f575081810a611851565b6118398383611771565b806000190482111561184d5761184d61147d565b0290505b92915050565b600061123e83836117b456fe2e2f6c69622f666f756e6472792d687566662f736372697074732f62696e6172795f636865636b2e73682e2f6c69622f666f756e6472792d687566662f736372697074732f66696c655f7772697465722e73682e2f6c69622f666f756e6472792d687566662f736372697074732f726561645f616e645f617070656e642e73682e2f6c69622f666f756e6472792d687566662f736372697074732f72616e645f62797465732e7368a26469706673582212205c4a36992b97df4234a0208785336b698906e5757cc8b6f402c846f9b649e56b64736f6c634300080f0033",
    "linkReferences": {}
  },
  "methodIdentifiers": {
    "args()": "4e9b75b6",
    "binary_check()": "c5effd02",
    "code()": "24c12bf6",
    "deploy(string)": "c7602316",
    "vm()": "3a768463",
    "with_args(bytes)": "28764d14",
    "with_code(string)": "2232d908"
  },
  "id": 7
}